:020000040800F2
:10000000C0860120A1010008E1900008AB010008B2
:10001000E58F0008852800080DFF0008000000009B
:10002000000000000000000000000000D1C0000837
:10003000C94E000800000000B7010008E1C8000830
:10004000BB010008BB010008BB010008BB010008A0
:10005000BB010008BB010008BB010008BB01000890
:10006000BB010008BB010008BB010008BB01000880
:10007000BB010008BB010008DD440008354600084C
:10008000BB010008BB010008BB010008BB01000860
:10009000BD290008BB010008BB010008BB01000826
:1000A000BB010008BB010008BB010008BB01000840
:1000B000BB010008BB010008BB010008BB01000830
:1000C000BB010008BB010008BB010008BB01000820
:1000D000F1B9000891D9000899DC000821DE000878
:1000E000BD6D0008BB010008BB010008BB01000892
:1000F000BB010008BB010008BB010008BB010008F0
:10010000BB010008BB010008BB010008BB010008DF
:10011000D5CD0008A5CF0008BB010008BB01000831
:10012000BB010008BB010008BB010008BB010008BF
:10013000BB010008BB010008BB010008BB010008AF
:10014000C92D0008BB010008BB0100086D9500081F
:10015000BB010008BB010008BB0100088DDF0008DF
:10016000BB010008BB010008BB010008BB0100087F
:10017000BB010008BB010008BB010008BB0100086F
:10018000BB010008BB010008DFF810D000F022FE20
:1001900000480047D96B0108AFF30080C0860120FA
:1001A0000648804706480047FEE7FEE7FEE7FEE711
:1001B000FEE7FEE7FEE7FEE7FEE7FEE7F9C8000818
:1001C00089010008F0B50021012200230024002548
:1001D0008E4E76788D4FBF7846EA0726C6F30A061C
:1001E0008B4F3E80894EB678F610884FFF7846EAEE
:1001F0004716C6F30A06864F7E80844EF678B611FF
:10020000824F3F7946EA8706804F7F7946EA872604
:10021000C6F30A067E4FBE807C4E767976107B4F01
:10022000BF7946EAC716C6F30A06794FFE80774EB5
:10023000B6793611754FFF7946EA0716C6F30A06F6
:10024000734F3E81714EF679F611704F3F7A46EA50
:1002500047066E4F7F7A46EA4726C6F30A066C4F7A
:100260007E816A4E767AB610684FBF7A46EA871664
:10027000C6F30A06664FBE81644EB67A7611634FA6
:10028000FF7A46EAC706624FFE81604E367B5F4FBB
:100290007F7B46EA0726C6F30A065D4F3E825B4E29
:1002A000767BF610594FBF7B46EA4716C6F30A061F
:1002B000574F7E82554EB67BB611544FFF7B46EAB0
:1002C0008706524F3F7C46EA8726C6F30A06504F00
:1002D000BE824E4E367C76104C4F7F7C46EAC71667
:1002E000C6F30A064A4FFE82484E767C3611474FC7
:1002F000BF7C46EA0716C6F30A06454F3E83434EC7
:10030000B67CF611414FFF7C46EA47063F4F3F7DE2
:1003100046EA4726C6F30A063D4F7E833B4E367DAE
:10032000B6103A4F7F7D46EA8716C6F30A06384F65
:10033000BE83364E767D7611344FBF7D46EAC706C2
:10034000334FFE83314EF67D3E8400200AE0304E6E
:1003500036F8106006F5FA7636B22D4F27F81060A1
:10036000461CF0B21128F2DB294EB6F92060B6F532
:10037000FA7F06D0264EB6F9206040F2F717BE424B
:1003800003D10026234F3E7002E00126214F3E702C
:10039000F0BD30B505462048007810B1012832D1B3
:1003A00010E00F2D0DD100201C490870084601787F
:1003B0000078401C194A107019484554012016490C
:1003C000087020E0154801780078401C134A10702E
:1003D0001348455410460078192813DB1048007E56
:1003E00058B9002405E00E48005D08490855601C16
:1003F000C4B2192CF7DBFFF7E5FE002006490870B0
:100400000649087000BF00BF30BD0000B6100020D4
:10041000D0100020F4100020F6100020F71000206B
:100420009C100020DFED300AB5EEC00A60EE200A15
:10043000BDEEE01A11EE100AF1EE10FA38BF401EC0
:1004400000EE100A9FED291AB8EEC00A70EEC00A3D
:1004500020EE810ABCEEC00A10EE100A00EE100A6F
:100460000028B8EEC00A10EE810AB8BF002004DBF5
:10047000B0F5807FC8BF4FF480701D4960EE000A60
:10048000B6EE001ADFED1C2A9FED1A2A60EE011A63
:1004900060EE225A20EE813A20EE022A21EEA01AC6
:1004A00001EB800073EE655A62EE202AB7EE006A17
:1004B00033EE003AD0EC043A76EE611A71EE600A3F
:1004C00035EEE20A33EE413A32EEC21A70EEA10A7C
:1004D00020EE230A64EE831A04EE200A45EE011A88
:1004E00031EE800A7047000083F9223E000080430D
:1004F000949C0108ABAA2A3EABAAAA3EDFED300AC3
:10050000B5EEC00A60EE200ABDEEE01A11EE100A48
:10051000F1EE10FA38BF401E00EE100A9FED291AC6
:10052000B8EEC00A70EEC00A20EE810ABCEEC00A26
:1005300010EE100A00EE100A0028B8EEC00A10EE05
:10054000810AB8BF002004DBB0F5807FC8BF4FF43C
:1005500080701D4960EE000AB6EE001ADFED1C2A1D
:100560009FED1A2A60EE011A60EE225A20EE813ABF
:1005700020EE022A21EEA01A01EB800073EE655AEC
:1005800062EE202AB7EE006A33EE003AD0EC043A6D
:1005900076EE611A71EE600A35EEE20A33EE413A08
:1005A00032EEC21A70EEA10A20EE230A64EE831A1C
:1005B00004EE200A45EE011A31EE800A7047000071
:1005C00083F9223E00008043A4A00108ABAA2A3E82
:1005D000ABAAAA3E40EA01039B0703D009E008C981
:1005E000121F08C0042AFAD203E011F8013B00F8F8
:1005F000013B521EF9D27047D2B201E000F8012B44
:10060000491EFBD270470022F6E710B513460A4692
:1006100004461946FFF7F0FF204610BD2DE9FE4FB6
:10062000804681EA0300C00F0C46009021F0004193
:1006300023F00045B8EB0200A94105D2404621460F
:1006400090461C460B46024623F00040104347D01C
:10065000270DC7F30A00C3F30A510290401A019014
:1006600040286BDAC3F3130040F4801B00989246D5
:1006700020B10023D2EB030A63EB0B0B0198594620
:10068000C0F14002504600F034FA06460D4650468E
:100690005946019A00F04CFA10EB08006141002421
:1006A00087EA115284EAE7731A4340D0009A62B392
:1006B000019A012A4FEA075215DC001B61EB020187
:1006C0004FF0004202EA0752CDE90042001C41F51A
:1006D000801132462B4600F083FA03B0BDE8F08F5C
:1006E00040462146F9E7001B61EB0201001C41F581
:1006F000801300185B412018A2F5001747EB030197
:1007000040EAD570B6196D4111E06D084FEA360622
:1007100045EAC0754FEA0752001B61EB0201001C5D
:1007200041F5801149084FEA300000195141324625
:100730002B4603B0BDE8F04F00F043BA0098012209
:1007400040000023D0EB020263EBE07300982146E7
:100750004FEAE074B8EB000061EB0401E9E783F0D5
:1007600000435BE781F0004158E72DE9FE4F81EA45
:10077000030404F0004421F0004100944FF0000B0A
:1007800023F0004350EA01045ED052EA03045BD038
:10079000C3F30A54C1F30A552C44A4F2F334019470
:1007A000A0FB0254C1F3130141F48011C3F31303FE
:1007B00043F4801301FB024400FB034E840A970AB2
:1007C00044EA815447EA8357A4FB076802958D0ADF
:1007D00005FB07854FEA932C04FB0C542705029D6B
:1007E0004FEA065847EA1637B5EB08056EEB070CDB
:1007F000870E920E47EA811742EA8312A7FB020195
:10080000B6EB0B0164EB00042B0D43EA0C335E18CE
:1008100044EB1C50DA465146E7FB0201C5F31304D2
:100820004FEA0B3343EA14534FEA0432019C43EA84
:100830000603A4F10C040294009CCDE900B400F07E
:10084000CFF903B0BDE8F08F00200146F9E72DE9AC
:10085000F04D81EA030404F0004B21F000451446FA
:100860004FF0000A23F0004150EA050220D054EA7C
:1008700001021DD0C5F30A570246C5F31303C1F3A5
:100880001300C1F30A5640F4801543F48013A7EB1C
:100890000608101BD64608F2FD3873EB050002D39C
:1008A00008F1010801E092185B41B8F1000F03DA8A
:1008B00000200146BDE8F08D00204FF4801106466F
:1008C00084460EE0171B73EB050705D3121B63EB81
:1008D000050306434CEA010C49084FEA3000921820
:1008E0005B4150EA0107EDD152EA030012D082EADF
:1008F000040083EA0501084305D0101BAB4106D272
:100900000122002306E000224FF0004302E06FF0D6
:10091000010253101AEB06004CEB085110EB0A00D1
:1009200041EB0B01BDE8F04D00F04BB90EB5C10F26
:1009300080EAE0700844CA07002140F233438DE8A2
:100940000E000A460B4600F04BF903B000BD0EB591
:1009500040F2334102910021CDE900110A460B46D5
:1009600000F03EF903B000BD70B5C1F30A5201F0CA
:1009700000450024C1F3130140F2FF3341F480111C
:100980009A4201DA002070BD40F233439A42A2F24B
:10099000334203DC524200F0BBF800E090402C43AD
:1009A000F1D0404270BD00F0004230F000400AD06B
:1009B000C10D01F56071C0F3160042EA0151C20891
:1009C00040071143704700200146704730B5041EB0
:1009D00071F1000404DB4FF00044404264EB01017C
:1009E000141E73F1000405DB1C464FF00043524215
:1009F00063EB04038B4208BF824230BD30B5041E56
:100A000071F1000404DB4FF00044404264EB01014B
:100A1000141E73F1000405DB1C464FF000435242E4
:100A200063EB0403994208BF904230BD01F00043DC
:100A300030B421F0004150EA010206D00A0DA2F5BF
:100A40006072C1F31301002A02DC30BC0020704741
:100A5000440F44EAC104C100E01830BC00EBC250AE
:100A600000F078B830B50B46014600202022012462
:100A700009E021FA02F59D4205D303FA02F5491B6C
:100A800004FA02F52844151EA2F10102F1DC30BD82
:100A90002DE9F05F0546002092469B4688460646B3
:100AA000814640241BE0284641464746224600F046
:100AB0002FF853465A46C01A914110D31146184692
:100AC000224600F016F82D1A67EB01084F46224621
:100AD0000120002100F00DF817EB00094E41201E07
:100AE000A4F10104DFDC484631462A464346BDE80E
:100AF000F09F202A04DB203A00FA02F10020704720
:100B00009140C2F1200320FA03F31943904070474B
:100B1000202A04DB203A21FA02F00021704721FA52
:100B200002F3D040C2F120029140084319467047B9
:100B3000202A06DBCB17203A41FA02F043EAE073A1
:100B400006E041FA02F3D040C2F12002914008438E
:100B5000194670470029A8BF7047401C490008BFCC
:100B600020F00100704710B4B0FA80FC00FA0CF0DD
:100B700050EA010404BF10BC704749B1CCF1200415
:100B800021FA04F411FA0CF118BF012121430843A2
:100B9000A3EB0C01CB1D4FEA00614FEA102042BFCE
:100BA000002010BC704700EBC35010440029A4BFC4
:100BB00010BC7047401C490008BF20F0010010BC69
:100BC000704710B5141E73F1000408DA401C41F19F
:100BD000000192185B411A4301D120F0010010BDC1
:100BE0002DE9F04D92469B4611B1B1FA81F202E037
:100BF000B0FA80F220329046FFF77BFF04460F46A2
:100C000040EA0A0041EA0B0153465A46084313D012
:100C1000114653EA010019D0C8F140025046FFF7CF
:100C200077FF05460E46504659464246FFF761FF9C
:100C3000084305D0012004E020463946BDE8F08D88
:100C40000020054346EAE0762C4337430A986305C3
:100C5000E40AA0EB08000022FD0A44EA47540A30E7
:100C600002D500200146E9E7010510196941DDE9D7
:100C7000084500196941BDE8F04DA2E72DE9F04DA6
:100C800000231A461B1A8A4103DB00200146BDE8F7
:100C9000F08DC1F30A52C1F3130141F480154FF0F6
:100CA000000BD10702D100186D41521E00270446E7
:100CB00040F2FF11384601EB620A3E46804602468A
:100CC00000204FF48011FFF723FFC2197141BB18B8
:100CD00046EB0100B4EB030C75EB000C04D3E41AF3
:100CE00065EB000517460E46241908F101006D4119
:100CF00080463428E3DDF91946EB0600091BA841BC
:100D000003D24FF0FF32134601E0002213461BEBE3
:100D1000070046EB0A51BDE8F04DFFF752BF2DE941
:100D2000FE4FC3F30A5701F000450024C1F30A56F1
:100D3000C3F31303C1F3130143F4801312EB020A4C
:100D4000A64641F48011009543EB030CA7F1010B7B
:100D500016E0B0EB0A0061EB0C01071E71F1000711
:100D600007DA4FF00008D0EB080085F0004568EB8B
:100D70000101171A73EB0107EBD3761E00184941E6
:100D80005E45F6DA50EA010209D0CDE900E500221D
:100D900013460296FFF724FF03B0BDE8F08F20460C
:100DA0000099F9E7C1F30A52C1F3130140F2FF338E
:100DB00041F480119A4202DA00200146704740F265
:100DC00033439A42A2F2334202DC5242FFF7A0BE02
:100DD000FFF78FBE064C074D06E0E06840F00103C8
:100DE00094E8070098471034AC42F6D3FFF7D0F9E7
:100DF000E0A6010800A7010870B58C1810F8015B87
:100E000015F0070301D110F8013B2A1106D110F8A3
:100E1000012B03E010F8016B01F8016B5B1EF9D1A7
:100E20002B0705D40023521E0DD401F8013BFAE72D
:100E300010F8013BCB1A921C03E013F8015B01F898
:100E4000015B521EF9D5A142D8D3002070BD21B15B
:100E5000826842F00102826003E0826822F00102AF
:100E6000826070470021084A1168084A1140D0E9A1
:100E700000231A4383681A43C3681A431143044A80
:100E8000C2F804137047000004230140E030FCFF67
:100E90000020014030B50246002000235068104C6D
:100EA00020400D790C6844EA052420435060906886
:100EB0000C4C2040D1E903542C438D682C434D79D0
:100EC00044EA450420439060D06A20F470000C7D11
:100ED000641EE4B2234340EA0350D06230BD0000F8
:100EE000FFFEFFFCFDF7FFC000B58DB0012105201E
:100EF00009F04AFD0121080209F086FD10200B903F
:100F000003208DF8300000208DF833000BA9154820
:100F100005F0A2FF0121080209F086FD00214FF42F
:100F2000807009F081FD002007900A9009904FF42D
:100F30008030089007A8FFF795FF002001908DF8FA
:100F400008008DF809000390059001208DF8180025
:100F500001A90548FFF79EFF01210348FFF777FF2E
:100F60000DB000BD00000240002001401CB54FF450
:100F7000A06008F0F3F80BF07DFC3F483F4B404A7F
:100F8000012100903F480DF018FC08F0F7FA0AF034
:100F900003FA322008F00CFB322008F007FC07F0BF
:100FA00095F94FF416500EF0B3FF4FF4FA200FF0FE
:100FB00021F835480EF0E4FE4FF4E1300EF036FF34
:100FC00001206021314B324ACDE90010C106314881
:100FD00007F094FF012280212D48001F0DF09EF89C
:100FE00062212C4807F0E8FF642003F06EFF0AF04E
:100FF00093FE0AF015FE02F0E5FB02F081FC02F020
:1010000013FC02F0A5FC642003F05FFF13F0C8FF9F
:101010000FF0D0F9642003F058FF09F089FD642037
:1010200003F053FF0AF01CF81B48006818B1532165
:10103000002001F0C5FBFFF757FF07F0A9F90023D7
:10104000B0EE080A08220321012001F01DFC002354
:10105000B0EE080A08220321012001F027FE02F069
:10106000EBFA08F005FA08F0A7F8FA21042006F0D8
:10107000D1FF01201CBD0000840E0020C40E002002
:10108000280E002024B80020A08601003C3A012050
:1010900004100140B8640240F000002030B5002385
:1010A0000424002204E0855C1D44EBB2551CEAB226
:1010B0004D1E9542F7DC451815F8015C9D4200D0A5
:1010C00030BD0578BA2D02D14578BF2D00D0F7E7A5
:1010D0008578012D00D100BF00BFF1E72DE9F04771
:1010E0002DED068B82B0054688460026B146B246F5
:1010F00004200190002405E0285D504400F0FF0A20
:10110000601CC4B2A8F10100A042F5DC05EB0800A8
:1011100010F8010C504505D0002402B0BDEC068B40
:10112000BDE8F0872878AA2802D16878AF2801D0D6
:101130000024F2E7A87801287ED1FE480068401C10
:10114000FC490860A878FC4951F82000401CA978A7
:10115000F94A42F8210001A9284611F081FEF74919
:1011600081F8E80501A9284614F02DF8F349C86173
:1011700001A9284611F074FEF04981F8690501A91A
:10118000284611F06DFEED4981F8E90501A92846D0
:1011900011F066FEE94981F88C0601A9284611F094
:1011A0005FFEE64981F88D0601A9284611F058FE38
:1011B000E24981F86B0501A9284611F051FEDF498B
:1011C00081F86A0501A9284613F022FDDB4880ED6D
:1011D0003E0A01A9284613F01BFDD84880ED3F0ABE
:1011E00001A9284613F014FDD44880ED400A01A956
:1011F000284613F00DFDD14880ED3A0A01A9284692
:1012000013F006FDCD4880ED3B0A01A9284613F0F6
:10121000FFFCCA4880ED3C0A01A9284613F0F8FCFF
:10122000C74880EDA70A01A9284613F0F1FCC4487D
:1012300080EDA80A01A900E0C0E0284613F0E8FC10
:10124000BF4880EDA90A01A9284613F0E1FCBC487B
:1012500080EDAA0A01A9284611F002FEB74981F8DB
:10126000680501A9284611F0FBFD012801D1811E66
:1012700000E00121B348C0F8E41201A9284611F0AA
:10128000EFFD012801D1811E00E00121AD48C0F829
:10129000801801A9284611F0E3FD012801D1811E23
:1012A00000E00121A748C0F81C1E01A9284611F042
:1012B000D7FD012801D1811E00E00121A248C0F81C
:1012C000E41201A9284613F0A3FC9D4880ED190AF9
:1012D00001A9284613F09CFC994880ED1A0A01A93F
:1012E000284613F095FC964880ED1B0A01A9284674
:1012F00013F08EFC924880ED1C0A01A9284613F0D9
:1013000087FC8F4880ED150A01A9284613F080FC60
:101310008B4880ED160A01A9284613F079FC88480D
:1013200080ED170A01A9284613F072FC844880ED6D
:10133000180A01A9284613F06BFC01A9284613F0EE
:1013400067FC01A9284613F063FC01A9284613F0A5
:101350005FFC01A9284613F05BFCBCEEC00A10EE4E
:10136000100AC6B27548C06942F2107190FBF1F0E4
:10137000724908730846C069097B40F2712211FB6B
:1013800002F1A0EB0110642190FBF1F0C1B26B48B7
:101390004173007F6949097B012211FB02F1A0EB37
:1013A00001116648407B00EBC00202EB0010A1EB8C
:1013B0008000C1B26148817301F0FCB9A87821288E
:1013C0007ED1A8785C4951F82000401CA9785A4A7F
:1013D00042F8210001A9284611F042FD814601A9E9
:1013E000284611F03DFD064601A9284613F010FCE1
:1013F000564880ED040A01A9284613F009FC534819
:1014000080ED050A01A9284613F002FC4F4880ED43
:10141000060A01A9284613F0FBFB4C4880ED070A99
:1014200001A9284613F0F4FB484880ED080A01A9F9
:10143000284613F0EDFB454880ED090A01A928462E
:1014400013F0E6FB414880ED0D0A01A9284613F090
:10145000DFFB3E4880ED0E0A01A9284613F0D8FBB9
:101460003A4880ED0F0AB9F1000F12D0012E03D1D6
:101470000120364908709FE7022E03D1012033492D
:10148000487099E7032E97D10120304981F8000177
:1014900092E701A9284613F0BBFBDFED2D0A20EEF1
:1014A000200A2A4880ED2B0A01A9284613F0B0FB38
:1014B000DFED270A20EE200A244880ED2C0A00E008
:1014C00086E001A9284613F0A3FBDFED210A20EEF8
:1014D000200A1E4880ED2C0A01A9284613F098FB2B
:1014E0001A4880ED2E0A01A9284613F091FB1748EF
:1014F00080ED2F0A01A9284613F08AFB134880EDDE
:10150000300A01A9284613F083FB104880ED310A08
:1015100001A9284613F07CFB0C4880ED320A01A992
:10152000284613F075FB094880ED330A01A92846C7
:1015300010E000002C0D002014440120782700202A
:10154000442B002008110020DC2100201864012019
:101550000000804513F05CFBFE4880ED340A01A9D1
:10156000284613F055FBFB4880ED350A01A92846B3
:1015700013F04EFBF74880ED360A01A9284613F018
:1015800047FBF44880ED440A01A9284613F040FBCC
:10159000F04880ED450A01A9284613F039FBED48D3
:1015A00080ED460A01A9284613F032FBE94880ED98
:1015B000500A01A9284613F02BFBE64880ED510A9A
:1015C00001A9284613F024FBE24880ED520AF3E615
:1015D000A87851287ED1A878DF4951F82000401C16
:1015E000A978DD4A42F8210001A9284611F038FC0B
:1015F0000646022E04D10121D84880F8EA15DBE620
:10160000012E04D10121D54880F8E815D4E6D3484D
:1016100090F8EA050028DAD101A9284613F0F8FA73
:10162000CE4880EDF30A01A9284613F0F1FACB4821
:1016300080EDF40A01A9284613F0EAFAC74880EDC4
:10164000F50A01A9284613F0E3FAC44880EDF60A2A
:1016500001A9284613F0DCFAC04880EDF70A01A979
:10166000284613F0D5FABD4880EDF80A01A92846AE
:1016700013F0CEFAB94880EDF90A01A9284613F013
:10168000C7FAB64880EDFA0A01A9284613F0C0FA55
:10169000B24880EDFB0A01A9284613F0B9FAAF4819
:1016A00080EDFC0A01A9284613F0B2FAAB4880EDA0
:1016B000FD0A01A9284613F0ABFAA84880EDFE0AFE
:1016C00001A9284613F0A4FAA44880EDFF0A01A955
:1016D000284600E01FE113F09BFAA14880ED0D0AB7
:1016E00001A9284613F094FA9D4880ED0E0A01A93D
:1016F000284613F08DFA9A4880ED0F0A01A9284672
:1017000013F086FA964880ED100A01A9284613F0D6
:101710007FFA934880ED110A01A9284613F078FA60
:101720008F4880ED120A01A9284613F071FA8C48FF
:1017300080ED130A01A9284613F06AFA884880ED63
:10174000140A01A9284613F063FA854880ED240A9B
:1017500001A9284613F05CFA814880ED250A01A909
:10176000284613F055FA7E4880ED260A01A928463E
:1017700013F04EFA7A4880ED270A01A9284613F0A3
:1017800047FA774880ED210A01A9284613F040FA6C
:10179000734880ED220A01A9284613F039FA7048EF
:1017A00080ED230A01A9284613F032FA6C4880ED37
:1017B0002C0A01A9284613F02BFA694880ED2D0A5E
:1017C00001A9284613F024FA654880ED2E0A01A9E4
:1017D000284613F01DFA624880ED730A01A92846D5
:1017E00013F016FA5E4880ED740A01A9284613F03A
:1017F0000FFA5B4880ED750A01A9284613F008FA34
:10180000B0EE40AA01A9284613F002FAB0EE40AAB1
:1018100001A9284613F0FCF9B0EE40AA01A9284618
:1018200013F0F6F94E4880ED150A01A9284613F089
:10183000EFF94B4880ED160A01A9284613F0E8F9A4
:10184000474880ED170A01A9284613F0E1F94448FA
:1018500080ED180A01A9284613F0DAF9404880ED16
:10186000190A01A9284613F0D3F93D4880ED1A0A58
:1018700001A9284613F0CCF9394880ED1B0A01A9CB
:10188000284613F0C5F9364880ED1C0A01A9284600
:1018900013F0BEF9314880ED2A0A01A9284613F059
:1018A000B7F92E4880ED2B0A032E2FD001A9284628
:1018B00013F089FC2949C8610846C06942F21071D9
:1018C00090FBF1F0254908730846C069097B40F296
:1018D000712211FB02F1A0EB0110642190FBF1F0E9
:1018E000C1B21E484173007F1C49097B012211FBD4
:1018F00002F1A0EB01111948407B00EBC00202EBA2
:101900000010A1EB8000C1B214488173012113487B
:1019100080F8E81550E5A878612872D1A8780E49BA
:1019200051F82000401CA9780B4A42F821000820F9
:1019300005F07CFD0B4880ED000A01A9284611F056
:101940008FFA00EE100AB8EE400AB0EE40AA01A9E4
:10195000284609E01864012014440120782700205B
:10196000442B0020280D002011F07AFA00EE100A16
:10197000B8EE400AB0EE40AA01A9284611F070FA6C
:10198000FC4981F8E80501A9284613F041F9B0EEB9
:1019900040AA01A9284613F03BF9B0EE40AA01A9DC
:1019A000284613F035F9B0EE40AA01A9284613F0F5
:1019B0002FF9B0EE40AA01A9284613F029F9B0EE9C
:1019C00040AA01A9284613F023F9B0EE40AA01A9C4
:1019D000284613F01DF9B0EE40AA01A9284613F0DD
:1019E00017F9B0EE40AA01A9284613F011F9B0EE9C
:1019F00040AA01A9284611F033FA012802D1811E1C
:101A000001E0BFE00121DC48C0F8E41201A928464A
:101A100011F026FA012801D1811E00E00121D648EB
:101A2000C0F8801801A9284611F01AFA012801D13E
:101A3000811E00E00121D048C0F81C1E01A92846E3
:101A400011F00EFA012801D1811E00E00121CB48DE
:101A5000C0F8E41201A9284613F0DAF8C54880ED71
:101A6000F30A01A9284613F0D3F8C24880EDF40A1E
:101A700001A9284613F0CCF8BE4880EDF50A01A96B
:101A8000284613F0C5F8BB4880EDF60A01A92846A0
:101A900013F0BEF8B74880EDF70A01A9284613F005
:101AA000B7F8B44880EDF80A01A9284613F0B0F859
:101AB000B04880EDF90A01A9284613F0A9F8AD480D
:101AC00080EDFA0A01A9284613F0A2F8A94880ED92
:101AD000FB0A01A9284613F09BF8A94880ED120AD9
:101AE00001A9284613F094F8A54880ED130A01A92E
:101AF000284613F08DF8A24880ED140A01A9284663
:101B000013F086F8B0EE40AA01A9284613F080F839
:101B1000B0EE40AA01A9284613F07AF8B0EE40AA28
:101B200001A9284613F074F8924880ED2A0A01A909
:101B3000284613F06DF88F4880ED2B0A01A928463E
:101B400013F066F88E4880ED190A01A9284613F0B3
:101B50005FF88B4880ED1A0A01A9284613F058F85F
:101B6000874880ED1B0A01A9284613F051F88448E4
:101B700080ED1C0A01A9284613F04AF8804880ED40
:101B8000260A19E4A87802287ED1A8787D4951F860
:101B90002000401CA9787B4A42F8210001A9284670
:101BA00011F05EF9814601A9284611F059F97149F1
:101BB00081F8E90501A9284611F052F96D4981F82B
:101BC000E805814601A9284611F04AF9694981F8DA
:101BD0006A0501A9284611F043F96749C1F8900345
:101BE00001A9284611F03CF901466348C0F8941356
:101BF00001A9284611F034F901465F48C0F898134E
:101C000001A9284611F02CF901465B48C0F82C19AF
:101C100001A9284611F024F901465748C0F83019A7
:101C200001A9284611F01CF901465348C0F834199F
:101C300001A9284611F014F901464F48C0F8C81E02
:101C400001A9284611F00CF901464B48C0F8CC1EFA
:101C500001A9284611F004F901464748C0F8D01EF2
:101C600001A9284611F0FCF84449C1F8900301A9E4
:101C7000284611F0F5F801464048C0F8941301A930
:101C8000284611F0EDF800E08FE001463B48C0F82F
:101C9000981301A9284612F0BBFFB0EE40AA01A993
:101CA000284612F0B5FFB0EE40AA01A9284612F06E
:101CB000AFFFB0EE40AA00242AE0002724E040F263
:101CC000671060432C4901EB800000F5647050F808
:101CD000270001280BD1811E40F267106043264A7D
:101CE00002EB800000F5647040F827100AE0012143
:101CF00040F267106043204A02EB800000F56470F8
:101D000040F82710781CC7B2032FD8DB601CC4B280
:101D1000042CD2DBB9F1010F0BD1002407E000271E
:101D200001E0781CC7B2032FFBDB601CC4B2042C9B
:101D3000F5DB104890F8E9050B2830D1B7EE000A22
:101D40000C4880ED110A01A9284612F061FF0948EC
:101D500080ED0D0A01A9284612F05AFF054880EDD2
:101D60000E0A01A9284612F053FF024880ED0F0A1F
:101D7000002411E07827002008110020DC21002039
:101D8000442B002014440120002701E0781CC7B236
:101D9000032FFBDB601CC4B2042CF5DB17E49FEDC2
:101DA000FE0AFE4880ED110A11E4A878312840D1DE
:101DB000A878FB4951F82000401CA978F84A42F85D
:101DC00021000120F74908700020486001200872B6
:101DD00001A9284611F044F8F249487201A92846A1
:101DE00012F016FFEF4880ED030A01A9284612F011
:101DF0000FFFEC4880ED040A01A9284612F008FF05
:101E0000E84880ED050A01A9284612F001FFE548DF
:101E100080ED060A01A9284612F0FAFEE14880ED9D
:101E2000070A01A9284612F0F3FEDE4880ED080AF1
:101E300070E5A87832287CD1A878D94951F82000DB
:101E4000401CA978D64A42F821000120D5490870E3
:101E50000020486001A9284611F002F8D1494872D3
:101E600001A9284610F0FCFFCE4981F83801084648
:101E7000007A032892D00220087201A9284612F0A5
:101E8000C7FEC84880ED0A0A01A9284612F0C0FE24
:101E9000C44880ED0B0A01A9284612F0B9FEC148DA
:101EA00080ED0C0A01A9284612F0B2FEBD4880ED73
:101EB0000D0A01A9284612F0ABFEBA4880ED0E0AC1
:101EC00001A9284610F0CCFFB649C86501A92846EB
:101ED00010F0C6FFB349086601A9284613F073F94C
:101EE000B049086401A9284613F06DF9AD49C863EB
:101EF00001A9284610F0B4FFAA49486401A9284660
:101F000010F0AEFFA749886401A9284610F0A8FF89
:101F1000A449086501A9284610F0A2FFA149C86498
:101F200001A9284610F09CFF9E49486501A9284652
:101F300000E007E010F094FF9A49886500209A4974
:101F4000087258E2A87852282CD1A878944951F800
:101F50002000401CA978924A42F821009FED8E0A89
:101F60008E4880ED190A00F5737080EDA30ABCEE6F
:101F7000C00A10EE100AC0B2884981F8C20381F885
:101F8000C3039FED850A084680ED110ABCEEC00A26
:101F900010EE100AC1B2814880F8E915814880F836
:101FA000241028E2A878532830D1A8787C4951F829
:101FB0002000401CA9787A4A42F821009FED760A59
:101FC000764880ED190A00F5737080EDA30ABCEE27
:101FD000C00A10EE100AC0B2704981F8C20381F83D
:101FE000C3039FED6D0A084680ED110ABCEEC00ADE
:101FF00010EE100AC1B2694880F8E915694880F806
:1020000024100121042006F005F8D3E3A878542811
:102010000DD1A878624951F82000401CA978604A87
:1020200042F8210001215D4880F8E815C2E3A87854
:1020300082287BD101205D4908609FED570A5C48EA
:1020400080ED000A01205B4908609FED530A5A4861
:1020500080ED000AA878524951F82000401CA97868
:102060004F4A42F8210001A9284610F0F9FE064621
:102070000B2E02D101205149086001A9284610F019
:10208000EFFE06469EB900240EE0C4EB04104C4956
:1020900001EB0010C6660120C4EB0411484A02EBB4
:1020A00001114870601CC4B20E2CEEDB12E000245B
:1020B0000EE00021C4EB0410414A02EB0010C1669F
:1020C0000020C4EB041102EB01114870601CC4B283
:1020D0000E2CEEDB01A9284610F0C2FE06460024B5
:1020E0001BE0C4EB0410364901EB0010C670C4EBD2
:1020F000041001EB0010C07802280CD1C4EB0410CE
:1021000001EB0010807830B90120C4EB04112C4A97
:1021100002EB01118870601CC4B20E2CE1DB01A936
:10212000284610F09DFE0646002408E064E1C4EB5A
:102130000410234901EB0010C671601CC4B20E2CC0
:10214000F5DB0024BEE001A9284610F089FEC4EBAF
:1021500004111B4A02EB011181F8EC0001A9284689
:1021600010F07EFEC4EB0411154A02EB0111086762
:10217000C4EB0410114601EB0010407C58B9C4EBCD
:10218000041001EB0010006F012823D101A928469B
:1021900012F03EFD16E029E0000000007827002044
:1021A00014440120A097002010B50020F80C002056
:1021B000000D0020FC0C0020040D0020F00C00207D
:1021C0008C4C0120C4EB0410F94901EB001080EDA8
:1021D000090A14E001A9284612F01AFDC4EB041004
:1021E000F34901EB001080ED050A08E001A928463B
:1021F00012F00EFDBCEEC00A10EE100AC6B201A924
:10220000284612F005FDC4EB0410E94901EB00106B
:1022100080ED230A01A9284610F022FE0121C1EB1E
:102220004000032808D1011FC4EB0410E04A02EB70
:102230000010C0F8D41007E00121C4EB0410DC4A00
:1022400002EB0010C0F8D41001A9284610F008FED7
:102250000121C1EB4000032808D1011FC4EB041089
:10226000D34A02EB0010C0F8D01007E00121C4EB04
:102270000410CF4A02EB0010C0F8D01001A9284684
:1022800010F0EEFD012808D10021C4EB0410C84A6B
:1022900002EB0010C0F8D81007E00121C4EB0410D5
:1022A000C34A02EB0010C0F8D81001A9284612F06A
:1022B000AFFCC4EB0410BE4901EB001080ED110A25
:1022C000601CC4B2072CFFF63EAF01A9284610F0EF
:1022D000C7FDB749087201A9284610F0C1FDB449ED
:1022E00081F8F80001A9284610F0BAFDB04981F83C
:1022F000E80101A9284610F0B3FDAD4981F8D802E4
:1023000001A9284610F0ACFDA94981F8C80301A92C
:10231000284610F0A5FDA64981F8B80401A9284671
:1023200010F09EFDA24981F8A805002461E0C4EBED
:1023300004109F4901EB001090ED050ADFED9D0AA6
:10234000B4EEE00AF1EE10FA02D29FED9A0A17E01D
:10235000C4EB0410964901EB001090ED050ADFED87
:10236000960AB4EEE00AF1EE10FA02DD9FED920A51
:1023700006E0C4EB04108E4901EB001090ED050A55
:10238000C4EB04108A4901EB001080ED050AC4EB90
:1023900004100A4602EB001090ED230A10EE101A0A
:1023A0000846FEF700FB41EC190BB0EE490AF0EECF
:1023B000690A0FF0FFF8B0EE408AF0EE608A9FEDF8
:1023C0007F0B53EC102B51EC180BFEF717FB07D2C9
:1023D0000221C4EB0410764A02EB0010C16606E04D
:1023E0000121C4EB0410724A02EB0010C166601CAC
:1023F000C4B20E2C9BDBDDE1A8788328FBD1012041
:10240000704908601FED9C0A6F4880ED000A0120AA
:102410006E4908601FEDA00A6D4880ED000AA8789B
:102420006C4951F82000401CA9786A4A42F8210002
:1024300001A9284610F014FD06460B2E02D10120FA
:102440006549086001A9284610F00AFD06469EB9B4
:1024500000240EE0C4EB0410554901EB0010C666E1
:102460000120C4EB0411524A02EB01114870601CB8
:10247000C4B20E2CEEDB12E000240EE00021C4EB0F
:1024800004104B4A02EB0010C1660020C4EB04119B
:1024900002EB01114870601CC4B20E2CEEDB01A9E6
:1024A000284610F0DDFC064600241BE0C4EB0410B7
:1024B0003F4901EB0010C670C4EB041001EB0010A3
:1024C000C07802280CD1C4EB041001EB0010807816
:1024D00030B90120C4EB0411354A02EB01118870B8
:1024E000601CC4B20E2CE1DB0724BDE001A9284624
:1024F00010F0B6FCC4EB04112D4A02EB011181F877
:10250000EC0001A9284610F0ABFCC4EB0411284AEA
:1025100002EB01110867C4EB0410114601EB001037
:10252000407CF0B9C4EB041001EB0010006F0128EF
:102530000BD101A9284612F06BFBC4EB04101C4917
:1025400001EB001080ED090A14E001A9284612F001
:102550005FFBC4EB0410164901EB001080ED050A87
:1025600008E001A9284612F053FBBCEEC00A10EEA9
:10257000100AC6B201A9284612F04AFBC4EB0410A7
:102580000B4901EB001080ED230A01A9284610F049
:1025900067FC0121C1EB400003281FD1011FC4EBE0
:1025A0000410034A02EB0010C0F8D4101EE0000033
:1025B0008C4C0120000032C3000032437B14AE4734
:1025C000E17A843FF80C0020000D0020FC0C002074
:1025D000040D002014440120F00C00200121C4EB64
:1025E0000410764A02EB0010C0F8D41001A9284666
:1025F00010F036FC0121C1EB4000032808D1011F77
:10260000C4EB04106D4A02EB0010C0F8D01007E0D4
:102610000121C4EB0410694A02EB0010C0F8D0108D
:1026200001A9284610F01CFC012808D10021C4EBA8
:102630000410624A02EB0010C0F8D81007E0012134
:10264000C4EB04105D4A02EB0010C0F8D81001A9D9
:10265000284612F0DDFAC4EB0410584901EB0010D3
:1026600080ED110A601CC4B20E2CFFF63FAF01A929
:10267000284610F0F5FB514981F8980601A9284633
:1026800010F0EEFB4D4981F8880701A9284610F0AB
:10269000E7FB4A4981F8780801A9284610F0E0FBD9
:1026A000464981F8680901A9284610F0D9FB434939
:1026B00081F8580A01A9284610F0D2FB3F4981F859
:1026C000480B01A9284610F0CBFB3C4981F8380C97
:1026D00000246DE0C4EB0410384901EB001090EDCC
:1026E000050A5FED4C0AB4EEE00AF1EE10FA02D2F0
:1026F0001FED500A17E0C4EB0410304901EB001045
:1027000090ED050A5FED540AB4EEE00AF1EE10FA1E
:1027100002DD1FED570A06E0C4EB0410274901EB68
:10272000001090ED050AC4EB0410244901EB0010E1
:1027300080ED050AC4EB041001EB001090ED230AB4
:10274000C4EB041001EB001080ED0A0AC4EB041086
:102750000A4602EB001090ED230A10EE101A08460C
:10276000FEF721F941EC190BB0EE490AF0EE690AC7
:102770000EF020FFB0EE408AF0EE608A1FED710B84
:1027800053EC102B51EC180BFEF738F907D202214D
:10279000C4EB0410094A02EB0010C16606E00121F7
:1027A000C4EB0410054A02EB0010C166601CC4B201
:1027B0000E2C8FDB00BFFEF7B0BC00008C4C01205C
:1027C00030B58BB004460D460121042008F0FCF81A
:1027D0000121022008F0D8F802220721274804F03E
:1027E00083FB8020099002208DF8280003208DF8BB
:1027F000290000208DF82A0001208DF82B0009A95E
:102800001E4804F029FBA8B2ADF818000020ADF86E
:102810001A000794ADF8200006A919480AF01EFA1C
:102820006020ADF804000120ADF806000220ADF8EC
:1028300010000120ADF806006008039001A91048BF
:102840000AF0FEF808210E480AF04CF901210C4864
:102850000AF086F801210A480AF08EF8642012F086
:10286000FFF8022007F004FC642012F0F9F80021C0
:1028700008460AF063FA0BB030BD000000040240C5
:102880000008004000BFFEE7F0B52DED028B8BB0D5
:1028900004460D461646B0EE408A1F46012102202E
:1028A00008F072F80121480608F08EF84FF44070E5
:1028B000099002208DF8280000208DF82A000320BE
:1028C0008DF8290001208DF82B0009A9394804F062
:1028D000C3FA09220821374804F006FB09221146F1
:1028E000344804F001FB00208DF81E0001208DF813
:1028F0001F008DF8200000208DF821008DF82200A7
:102900008DF823008DF81A708DF81B408DF81C602F
:102910008DF81D50BCEEC80A10EE100A80B2ADF85A
:10292000180006A9244800F0A2FC00208DF812002F
:102930008DF8130001208DF814000020ADF8080078
:10294000ADF80A00ADF80C00ADF80E00ADF81000BF
:1029500001208DF8150002A800F0FCFB01220221E5
:10296000154800F07BFC14208DF8040001208DF840
:10297000050002208DF8060001208DF8070001A84F
:1029800006F0B0FB00224FF400410B4800F066FC5B
:1029900001220221084800F061FC0221064800F0F3
:1029A00085FB0121044800F081FB00200BB0BDEC49
:1029B000028BF0BD0004024000640040F0B585B019
:1029C0006A460021B04800F0DCFCB049009808706D
:1029D0009DF80B0048709DF80C0088709DF80D0064
:1029E000C8709DF80E0008719DF80F0048719DF8A1
:1029F000100088719DF81100C8719DF812000872CE
:102A0000009D2E0905F00F00471EA14890F8EC002C
:102A100012282EDA9DF8080000282AD19DF8080017
:102A20000028FAD19DF80A00062803D09DF80A0074
:102A30000828F2D19DF80B00012803D09DF80B0067
:102A4000112817D10DF10B01914810F08BFC904823
:102A500090ED0C0A8F4880ED140A8D4890ED0E0A17
:102A60008C4880ED220A8A4890ED100A894880ED52
:102A7000680AC4E09DF80B00022803D09DF80B0003
:102A8000122818D10DF10B018148F03010F06AFCCA
:102A90007F4890ED480A7F4880ED150A7C4890ED0C
:102AA0004A0A7C4880ED230A794890ED4C0A79481F
:102AB00080ED690AA3E09DF80B00032803D09DF880
:102AC0000B00132817D10DF10B01734810F04AFCCD
:102AD0006F4890ED840A6F4880ED160A6C4890EDBF
:102AE000860A6C4880ED240A694890ED880A694896
:102AF00080ED6A0A83E09DF80B00042803D09DF85E
:102B00000B00142818D10DF10B016348F03010F0C0
:102B100029FC5F4890EDC00A5E4880ED170A5C48CA
:102B200090EDC20A5B4880ED250A594890EDC40A31
:102B3000584880ED6B0A62E09DF80B00052803D031
:102B40009DF80B00152817D10DF10B01534810F01B
:102B500009FC4F4890EDFC0A4E4880ED180A4C489D
:102B600090EDFE0A4B4880ED260A4C4890ED100A85
:102B7000484880ED6C0A42E09DF80B00062803D01F
:102B80009DF80B0016281BD10DF10B014348F030C6
:102B900010F0E8FB4148F03090ED0C0A3D4880ED24
:102BA000190A3E48F03090ED0E0A3A4880ED270AA7
:102BB0003A48F03090ED100A364880ED6D0A1EE07C
:102BC0009DF80B00072803D09DF80B00172816D19D
:102BD0000DF10B01324810F0C5FB314890ED0C0AA5
:102BE0002C4880ED1A0A2E4890ED0E0A294880EDF7
:102BF000280A2B4890ED100A264880ED6E0A9DF8B1
:102C00000800C8BB9DF80800B0BB9DF80A00062864
:102C100032DB1F4890F8EC0012282DDB0022114611
:102C2000684608F0D9FB002424E0C4EB04101849DE
:102C300001EB001090ED0C0A1648503000EB8400B8
:102C400080ED000AC4EB041001EB001090ED0E0AB9
:102C50001048883000EB840080ED000AC4EB0410BB
:102C600001EB001090ED100A0E4800EB840080ED9F
:102C7000000A641C072CD8DB0B480068401C0A497A
:102C8000086005B0F0BD000000640040EC59012070
:102C90008C4C01206C4801206C4E01204C500120CE
:102CA0002C5201200C4A0120A40D0020F0B52DED7E
:102CB000028B8BB004460D461646B0EE408A1F4686
:102CC0000121022007F060FE0121880607F07CFE4A
:102CD0006020099002208DF8280000208DF82A003D
:102CE00003208DF8290001208DF82B0009A9344814
:102CF00004F0B2F809220521314804F0F5F8092260
:102D000006212F4804F0F0F800208DF81E00012065
:102D10008DF81F008DF8200000208DF821008DF81F
:102D200022008DF823008DF81A708DF81B408DF865
:102D30001C608DF81D50BCEEC80A10EE100A80B25F
:102D4000ADF8180006A91F4800F091FA0E208DF882
:102D5000120000208DF8130001208DF814000020CF
:102D6000ADF80800ADF80A00ADF80C00ADF80E00A3
:102D7000ADF8100001208DF8150002A800F0EAF966
:102D8000012202210F4800F069FA40208DF804006A
:102D900001208DF8050002208DF8060001208DF835
:102DA000070001A806F09EF900224FF400410548F3
:102DB00000F054FA00200BB0BDEC028BF0BD000017
:102DC000000402400068004010B586B0002401AA4B
:102DD0000021AB4800F0D5FA9FEDAA0AAA4880ED81
:102DE000000AAA4890F8EC0012282EDA9DF80C0090
:102DF00000282AD19DF80C000028FAD19DF80E0079
:102E0000062803D09DF80E000828F2D19DF80F0087
:102E1000012803D09DF80F00112817D10DF10F01E3
:102E20009B4810F09FFA9A4890ED0C0A994880ED63
:102E30001B0A974890ED0E0A964880ED290A94489F
:102E400090ED100A934880ED6F0ACAE09DF80F00DC
:102E5000022803D09DF80F0012281BD10DF10F019D
:102E60008B48F03010F07EFA8948F03090ED0C0A73
:102E7000884880ED1C0A8648F03090ED0E0A85489F
:102E800080ED2A0A8248F03090ED100A814880EDEA
:102E9000700AA6E09DF80F00032803D09DF80F00EC
:102EA000132817D10DF10F017B4810F05BFA7A4817
:102EB00090ED0C0A774880ED1D0A774890ED0E0AD8
:102EC000744880ED2B0A744890ED100A714880ED2B
:102ED000710A86E09DF80F00042803D09DF80F00CA
:102EE00014281BD10DF10F016B48F03010F03AFAA5
:102EF0006948F03090ED0C0A664880ED1E0A66487D
:102F0000F03090ED0E0A634880ED2C0A6248F030F4
:102F100090ED100A5F4880ED720A62E09DF80F00A4
:102F2000052803D09DF80F00152817D10DF10F01CA
:102F30005A4810F017FA594890ED0C0A554880EDA0
:102F40001F0A564890ED0E0A524880ED2D0A53484C
:102F500090ED100A4F4880ED730A42E09DF80F0093
:102F6000062803D09DF80F0016281BD10DF10F0184
:102F70004A48F03010F0F6F94848F03090ED0C0A6D
:102F8000444880ED200A4548F03090ED0E0A414853
:102F900080ED2E0A4148F03090ED100A3D4880ED5A
:102FA000740A1EE09DF80F00072803D09DF80F005B
:102FB000172816D10DF10F01394810F0D3F9384810
:102FC00090ED0C0A334880ED210A354890ED0E0A49
:102FD000304880ED2F0A324890ED100A2D4880EDE0
:102FE000750A9DF80C00E8BB9DF80C00D0BB9DF85D
:102FF0000E0006283CDB254890F8EC00122837DB51
:103000000122002101A808F0E7F907242EE0E01DC5
:10301000C0EB00101D4901EB001090ED0C0A1D489B
:103020005030E11D00EB810080ED000AE01DC0EB97
:103030000010164901EB001090ED0E0A154888307B
:10304000E11D00EB810080ED000AE01DC0EB0010E7
:103050000E4901EB001090ED100A1248E11D00EB43
:10306000810000E004E080ED000A641C0E2CCEDB41
:103070000D480068401C0C49086006B010BD0000F7
:103080000068004000000000C00D00208C4C0120B2
:103090001C5301206C480120FC540120DC56012007
:1030A000BC5801200C4A0120C40D0020B1F5007F5E
:1030B0003AD00FDC202928D006DC01291CD00429B5
:1030C0001DD0082940D11DE0402921D0B1F5807FD5
:1030D0003AD126E0B1F5004F31D006DCB1F5806F72
:1030E00025D0B1F5006F2FD124E0B1F5803F12D08B
:1030F000B1F5003F28D111E0154A826025E0082291
:10310000C26022E01022C2601FE0082202611CE0BF
:103110001022026119E00822426016E0102242608B
:1031200013E00422426010E0042242600DE0042219
:1031300042600AE0002282610422426005E000222F
:1031400082610422426000E000BF00BF70470000BF
:103150000101010010B50021837A012202FA03F176
:103160003D4A126842F001023B4B1A603A4A1C3257
:1031700012688A43384B1C331A60027BCAB9364A3C
:103180000C3212688A43344B0C331A604288C3886D
:1031900042EA0343304A4032847A42F834300288AB
:1031A000838842EA03432C4A4032847A02EBC40209
:1031B0005360027B012A19D1274A0C3212680A4354
:1031C000254B0C331A604288038842EA0343224AA3
:1031D0004032847A42F83430C288838842EA03431A
:1031E0001D4A4032847A02EBC4025360C27A3AB973
:1031F000194A121D12688A43174B1B1D1A6006E0FC
:10320000154A121D12680A43134B1B1D1A600289CE
:1032100032B9114A143212688A430F4B14331A60C0
:103220000289012A06D10C4A143212680A430A4B59
:1032300014331A60427B012A06D1074A1C321268F5
:103240000A43054B1C331A60034A126822F001023C
:10325000014B1A6010BD0000006600401AB14369BE
:103260000B43436102E043698B434361704730B5D0
:10327000024600200023146824F00204146014683D
:1032800044F00104146000E05B1C546804F0010485
:103290001CB94FF6FF74A342F6D1546804F0010440
:1032A0000CB900206CE08C79012C04D1146844F036
:1032B0008004146003E0146824F080041460CC7966
:1032C000012C04D1146844F04004146003E0146835
:1032D00024F0400414600C7A012C04D1146844F0EA
:1032E0002004146003E0146824F0200414604C7A75
:1032F000012C04D1146844F01004146003E0146835
:1033000024F0100414608C7A012C04D1146844F069
:103310000804146003E0146824F008041460CC7AF4
:10332000012C04D1146844F00404146003E0146810
:1033300024F0040414608C78A407CD7844EA056472
:103340000D7944EA05444D7944EA05540D886D1E13
:103350002C43D461146824F001041460002300E0BD
:103360005B1C546804F001041CB14FF6FF74A342C7
:10337000F6D1546804F001040CB1002000E00120F3
:1033800030BD10B500F5D87303EB01131B6803F0D3
:1033900004031372137A53B900F5D87303EB0113C6
:1033A0001B6840F2FF7404EA5353136009E000F510
:1033B000D87303EB01131B686FF0604404EAD30376
:1033C000536000F5D87303EB01131B6803F002038D
:1033D000537200F5D87303EB01135B6803F00F031E
:1033E000937200F5D87303EB01135B681B0AD37467
:1033F00000F5D87303EB01139B68D37200F5D87303
:1034000003EB01139B681C0A147300F5D87303EBDC
:1034100001139B681C0C547300F5D87303EB011364
:103420009B681B0E937300F5D87303EB0113DB68E5
:10343000D37300F5D87303EB0113DB681C0A147413
:1034400000F5D87303EB0113DB681C0C547400F512
:10345000D87303EB0113DB681B0E937421B9C368A7
:1034600043F02003C36003E0036943F020030361DA
:1034700010BD10B502460020936803F08063B3F1DD
:10348000806F00D110E0936803F00063B3F1006F28
:1034900001D1012008E0936803F08053B3F1805F0D
:1034A00001D1022000E00420042874D002F5C0738A
:1034B00003EB00131B6803F0010402F5C07303EB78
:1034C00000131C600B7A7BB94B7A0C8843EA445397
:1034D00002F5C07404EB00142468234302F5C074A1
:1034E00004EB0014236010E00B7A4C6843EAC40339
:1034F0004C7A234302F5C07404EB00142468234380
:1035000002F5C07404EB001423608B7A03F00F0300
:103510008B7202F5C07303EB00135B6823F00F049A
:1035200002F5C07303EB00135C6002F5C07303EB9C
:1035300000135B688C7A234302F5C07404EB00141B
:1035400063608B7B1C064B7B44EA03440B7B44EAA1
:103550000323CC7A234302F5C07404EB0014A36068
:103560008B7C1C064B7C44EA03440B7C44EA03231B
:10357000CC7B234302F5C07404EB0014E36002F536
:10358000C07303EB00131B6843F0010402F5C07322
:1035900003EB00131C6010BD10B50246002321B1DF
:1035A000012907D002290FD109E090681D4C00EADB
:1035B00004030BE090681C4C00EA040306E09068EA
:1035C0001A4C00EA040301E0002300BF00BF184CBE
:1035D000181BA34216D007DC83B16FF0806018443B
:1035E00070B1022818D111E0B0F5007F10D0114C55
:1035F000204448B1B0F5003F0ED10BE002230DE0AE
:1036000000230BE0002309E0002307E0012305E08D
:10361000012303E0012301E0002300BF00BFD8B273
:1036200010BD0000030000040003000800000310A8
:10363000000100080001FFF700B5002232E0002081
:103640001A49087081F83C00012081F83E001046BC
:1036500014F05AFB9FED160A164800EB820080ED2D
:10366000000AC2EB0210144901EB001080ED150AAC
:10367000B7EE000AC2EB021001EB001080ED110A58
:10368000B6EE000AC2EB021001EB001080ED120A48
:103690009FED0A0AC2EB021001EB001080ED140A44
:1036A000501CC2B20E2ACADB00BD00006C480120CB
:1036B0000000F042444C01208C4C0120CDCCCC3D8C
:1036C00070B52DED028BB0EE408A002400253948FC
:1036D00090F8EC00122835DB3748006810B1374805
:1036E0000068B0B900240AE0354890F83C00C4EB0B
:1036F0000411304A02EB01110870601CC4B20E2C98
:10370000F2DB2F4991F83C00B0EE480A13F0D2FEEC
:103710004DE0002413E0C4EB0410264901EB001037
:103720004078C4EB0411234A02EB011108701146E2
:103730004878B0EE480A13F0BDFE601CC4B20E2CEF
:10374000E9DB34E01C48006810B11C480068B0B9DF
:1037500000240AE01A4890F83C00C4EB0411154A12
:1037600002EB01110870601CC4B20E2CF2DB14498C
:1037700091F83C00B0EE480A13F08EFA17E00024EE
:1037800013E0C4EB04100B4901EB00104078C4EBCC
:103790000411084A02EB0111087011464878B0EE96
:1037A000480A13F079FA601CC4B20E2CE9DBBDECB8
:1037B000028B70BD8C4C0120F80C0020FC0C00200A
:1037C0006C48012000B585B00121880307F0FCF8A2
:1037D000144808F0FBFB0020ADF80000ADF8020033
:1037E000ADF80400ADF80600ADF80800ADF80A0029
:1037F0001020ADF80C000020ADF80E000720ADF849
:1038000010006946074808F045FC012211460548AA
:1038100008F0D2FB01220221024808F0CDFB05B0DE
:1038200000BD00000038004000B587B001218803CA
:1038300007F0CAF80121022007F0A6F805220D21A1
:103840002D4803F051FB05220E212B4803F04CFBC1
:1038500005220F21284803F047FB02208DF81800AD
:103860008DF8190000208DF81A0001208DF81B003A
:103870004003059005A9204803F0EEFA4FF480407C
:10388000059005A91C4803F0E7FA4FF400400590A5
:1038900005A9194803F0E0FA184808F097FB002042
:1038A000ADF80000ADF80200ADF80400ADF8060078
:1038B000ADF808004FF40070ADF80A001020ADF824
:1038C0000C000020ADF80E000720ADF8100069468E
:1038D0000A4808F0DFFB01221146084808F06CFB9B
:1038E00001220221054808F067FB0121034808F086
:1038F00057FB07B000BD0000000402400038004044
:1039000010B50121480507F03FF80E4800F03AFFD6
:103910000C48183000F036FF00200B49C862032025
:1039200008630020486308624FF4806088610020CB
:1039300048628863C86148610448486000200860A4
:1039400010BD0000586002405CBF00200C380040F1
:1039500008B54FF400302B4988620020C8602A481F
:103960008860A2200861294801F012F84FF4003065
:10397000244988624020C86025488860A2200861E8
:103980002248183001F004F8012210211F4800F0ED
:10399000E1FF0E208DF8000001208DF801008DF868
:1039A00002008DF80300684605F09CFB01221021FF
:1039B0001648183000F0CEFF0F208DF800000120CF
:1039C0008DF801008DF802008DF80300684605F0BF
:1039D00089FB01210D4800F0C9FE01210B48183078
:1039E00000F0C4FE012211460A4808F0E5FA01225F
:1039F0000221084808F0E0FA0121064808F0D0FA50
:103A000008BD00005CBF002018BE002058600240C6
:103A1000BABE00200038004010B54FF0C051104829
:103A200000F070FE0F490E48183000F06BFE0021C8
:103A30000B4800F09BFE00210948183000F096FE6C
:103A400000220121084808F0B7FA002202210648A6
:103A500008F0B2FA0021044808F0A2FA10BD0000F4
:103A600058600240200000200038004070B5064633
:103A70000C4604F08000802808D104F07F0000EBA1
:103A8000800106F58E7000EBC10507E004F07F00B1
:103A900000EB800106F55D7000EBC10504F07F00CE
:103AA000287004F08000C0096870294630460BF089
:103AB00025FE002070BD70B506460C4604F080005F
:103AC000802808D104F07F0000EB800106F58E709D
:103AD00000EBC10505E004EB840106F55D7000EB29
:103AE000C1050020A87004F07F002870C4F3C01046
:103AF0006870294630460BF0D9FD002070BD2DE9D5
:103B0000F04106460D4690461F4605F0800080288D
:103B100008D105F07F0000EB800106F58E7000EB08
:103B2000C10407E005F07F0000EB800106F55D7041
:103B300000EBC10405F07F00207005F08000C00993
:103B40006070C4F80880E770607808B12078E08081
:103B5000022F01D100202071214630460BF05AFD82
:103B60000020BDE8F0812DE9F04105460E461746DC
:103B7000984606F07F0000EB800105F55D7000EBD4
:103B8000C104E760C4F814800020A061607006F0F2
:103B90007F002070E878012800D12761207820B9C3
:103BA000214628460BF05AFC03E0214628460BF03C
:103BB00006FE0020BDE8F08108B500220092009AC0
:103BC00061F30A12009202691268009B1A430369AA
:103BD0001A6008BD70B506460C4604F080008028C7
:103BE00008D104F07F0000EB800106F58E7000EB39
:103BF000C10505E004EB840106F55D7000EBC1052D
:103C00000120A87004F07F002870C4F3C010687011
:103C1000294630460BF0A1FD002070BD2DE9F04192
:103C200007460D461646984605F07F0000EB8001DA
:103C300007F58E7000EBC1040120607005F07F0075
:103C40002070E66026610020A061C4F8148020780E
:103C500020B9214638460BF001FC03E021463846E6
:103C60000BF0ADFD0020BDE8F08100007CB50546FD
:103C7000564C28460BF0BDFBE868C06800900098E1
:103C800020F4705000900098E968C86028460BF056
:103C900059FF03280BD10020A8704FF40070A880B2
:103CA000009820F4705000F5105000907EE0012044
:103CB000A8704020A8804648844209D345488442E1
:103CC00006D2009820F4705000F5605000906DE02E
:103CD0004048844209D34048844206D2009820F4E8
:103CE000705000F55050009060E03B48844209D38A
:103CF0003A48844206D2009820F4705000F54050B3
:103D0000009053E03548844209D33548844206D2B6
:103D1000009820F4705000F53050009046E0304894
:103D2000844209D32F48844206D2009820F4705070
:103D300000F52050009039E02A48844209D32A48EF
:103D4000844206D2009820F4705000F51050009084
:103D50002CE02548844209D32448844206D20098A6
:103D600020F4705000F5005000901FE01F4884427E
:103D700009D31F48844206D2009820F4705000F501
:103D8000E050009012E01A48844209D31948844256
:103D900006D2009820F4705000F5C050009005E065
:103DA000009820F4705000F5A05000900098E96849
:103DB000C86000200190019820F4005000F50050E8
:103DC00001900198E968486101207CBD00B0710B49
:103DD000C0E1E4000024F400E0EC040100C3180199
:103DE000002D310140A44C0100366E0140E29501E6
:103DF00080C3C90160600B02F8B5054600240020AD
:103E0000009028460BF0DDFE064681E006F001003A
:103E100000287BD0E1B2284600F0F6FA0090009826
:103E200000F0010030B3012000FA04F72869406B6C
:103E3000B8432969486300200090009820F00100F1
:103E4000401C009005F1180050F824000099816092
:103E5000E1B232480068426828469047E878012875
:103E600008D13CB940F21110405D042802D1284627
:103E70000BF09FFB0098C0F3C00060B100200090E1
:103E8000009820F008000830009005F1180050F864
:103E90002400009981600098C0F3001060B10020F8
:103EA0000090009820F010001030009005F11800EC
:103EB00050F82400009981600098C0F3801060B130
:103EC00000200090009820F040004030009005F164
:103ED000180050F82400009981600098C0F3400059
:103EE00060B100200090009820F00200801C00903B
:103EF00005F1180050F82400009981600098C0F383
:103F0000C01018B12146284600F092FA641C7608C9
:103F1000002E7FF47BAF0120F8BD0000240E0020AE
:103F20007CB5044600250020019020460BF051FE90
:103F300006466FE006F00100002869D0E9B220468D
:103F40000BF04FFE0190019800F00100C8B3002073
:103F50000190019820F00100401C019004F15400F0
:103F600050F8250001998160E078012817D104F10B
:103F7000540050F825000069009005EB850104F518
:103F80005D7000EBC10080680099C1F31201411A15
:103F900005EB850204F55D7000EBC2008161E9B2BA
:103FA0001E480068026820469047E078012808D142
:103FB0003DB940F21110005D052802D120460BF0FA
:103FC000F8FA0198C0F3400060B100200190019818
:103FD00020F00200801C019004F1540050F82500EC
:103FE000019981600198C0F3C00088B10B48006856
:103FF00081682046884700200190019820F0080041
:104000000830019004F1540050F8250001998160B6
:104010006D1C7608002E8DD101207CBD240E002061
:104020003EB50446A07A78B1D4F80C01006800903F
:10403000009820F002000090009820F0010000900D
:104040000099D4F80C01016000200190019820F043
:104050000100401C01902069406801998843216952
:10406000486009480068816920468847002002901E
:10407000029820F0004000F1004002900298E168B0
:10408000486101203EBD0000240E00207CB504469E
:1040900000200190019820F0100010300190E0689D
:1040A000806901998843E1688861E068006A00904E
:1040B000009800F00F0000EB800104F55D7000EB4C
:1040C000C1050098C0F3434007282DD2DFE800F077
:1040D0002C04051D1E2C1F0027E00098C0F30A10B9
:1040E00090B10098C0F30A122046E9680BF083FDF6
:1040F000E8680099C1F30A110844E860A8690099CA
:10410000C1F30A110844A8610FE00EE00DE0082297
:1041100004F2CC5120460BF06EFDA8690099C1F362
:104120000A110844A86100E000BF00BFE068806990
:1041300001990843E168886101207CBD38B50446D7
:1041400008480068C1682046884700200090009811
:1041500020F00800083000900098E16848610120D4
:1041600038BD0000240E00201FB50446002000903A
:104170004FF48970005D0090234800684169204633
:10418000884720698068019000200390039820F4FC
:10419000006000F5006003900398E1684861A07A30
:1041A00070B3019800F0010050B340F21510005DAB
:1041B000012825D19DF80000032821D1002002907C
:1041C000029820F00100401C0290D4F80C01006815
:1041D00002990843D4F80C110860029820F00200FC
:1041E000801C0290D4F80C01006802990843D4F8AE
:1041F0000C1108600548006840F00600034908609B
:10420000012004B010BD0000240E002010ED00E0DD
:1042100030B587B0044600200290069005900490C7
:1042200003900190029820F00100401C0290206948
:1042300040680299884321694860002120460BF0BC
:1042400057FC00250BE0FF2104F1180050F8250071
:10425000816004F1540050F8250081606D1C607885
:10426000A842F0D84FF0FF312069816106986FF3C2
:104270000F00401C0690069880B200F58030069032
:1042800006992069C161059820F008000830059062
:10429000059820F00100401C0590059820F00200D0
:1042A000801C0590059920694161049820F0010067
:1042B000401C0490049820F00800083004900498F2
:1042C00020F00200801C049004992069016120699B
:1042D00000680390039820F4FE600390039920691E
:1042E000016020460BF065F900200190019820F450
:1042F000805000F5805001900198E16848610448C1
:104300000068016920468847012007B030BD0000E1
:10431000240E00202DE9F04106460F46394630466E
:104320000BF07EFC01214FF4897081550021801C27
:104330008155002511E005EB850106F58E7000EB37
:10434000C104012060702570E5800020E0704020ED
:10435000A0600020E06060616D1C7078A842EAD81F
:10436000002510E005EB850106F55D7000EBC1044A
:10437000002060702570E580E0704020A060002083
:10438000E06060616D1C7078A842EBD830460BF09D
:104390001FF830460AF04CFE002130460BF0A8FC16
:1043A00030460AF0D8FE30460BF06BFBBDE8F081DA
:1043B00038B504460020009007480068C1692046CF
:1043C0008847009820F4801000F580100090009835
:1043D000E1684861012038BD240E002038B504464C
:1043E0000020009007480068016A2046884700982E
:1043F00020F4001000F5001000900098E16848617A
:10440000012038BD240E002030B5024615692B6905
:1044100015696C6B24FA01F505F0010543EAC51333
:1044200002F1180555F82150AD6805EA030030BDCA
:104430002DE9F84306460F4600250020009007EBC3
:10444000870106F58E7000EBC104D4E90501451A19
:10445000A068A84200D2A568E81C4FEA900806F1BF
:10446000180050F827008069009029E0D4E9050180
:10447000451AA068A84200D2A568E81C4FEA900837
:10448000ABB2FAB23046E1680BF059FCE068284460
:10449000E060A0692844A06106F1180050F82700E8
:1044A00080690090D4E90501884209D12178012072
:1044B00000FA01F93069406B20EA0900316948636C
:1044C000009880B2404506D9D4E90510884202D24E
:1044D00060690028CAD10120BDE8F88370B50026C4
:1044E0004A494B4800F004FA00287DD04749484823
:1044F00000F022F900224549454800F02BFA4548D2
:10450000007800287CD1002578E04348445D43488A
:10451000007838B9FE2C05D1012040490870404888
:1045200004706AE03D480078012807D1FC2C05D1D1
:1045300002203A4908703A4844705EE037480078F3
:10454000022809D1002C07DDF12C05DA03203349BC
:1045500008703348847050E03048007803280CD14C
:10456000FE2C0ADA04202D4908702D48C4702D480D
:10457000047000202C4908703FE028480078042887
:1045800019D128480078002815DD26480078401EFB
:10459000244908702448007823490978491C224A94
:1045A0001170001D1E490C541E48007808BB0520E0
:1045B0001A49087021E01948007805281AD100200E
:1045C0001649087018480078001D15490C5404203D
:1045D0001649086014480078401DC1B2104813F015
:1045E00095FF1348006801E00EE009E0401C104907
:1045F000086002E00020094908706D1CA22D84DBD0
:10460000FFF70AFAFFF7A4F970BD00000080001858
:104610005860024060E2002018BE002086000020A2
:10462000D6C000208C0000208D0000200401002056
:104630000801002070B52DED028B00252549264884
:1046400000F056F9002842D02249234800F074F8BF
:1046500000222049204800F07DF92048007870BBF6
:1046600000201F494870102002F0E0FE1D4880ED38
:10467000000A90ED000A1C48D0ED000A30EE200A36
:1046800080ED000A0068FCF78EF941EC180B9FEDF5
:10469000170B53EC102BFCF7B1F908D29FED150A5C
:1046A000114880ED000A242014F01CFB02E01A20BF
:1046B00014F018FB002010490860002405E006E013
:1046C0000E48005D0E490855641CA22CF8DBBDECB9
:1046D000028B70BD208000207060024060E20020EC
:1046E0000C010020D4C10020A80000207B14AE479C
:1046F000E17A943F000000009C000020D8BF002019
:10470000BABE00200246094B9A4201D2084801E095
:104710000648103801F000531BB1064B0B40C36034
:1047200002E0044B0B4083607047000010640240BD
:10473000006002407D0F7D0F0246094B9A4201D274
:10474000084801E00648103801F000531BB1064B41
:104750000B40C36002E0044B0B40836070470000D5
:1047600010640240006002407D0F7D0F21B102689D
:1047700042F00102026003E0026822F001020260DE
:1047800070470000016821F0010101600021016013
:1047900041608160C1600161212141614A498842D3
:1047A00004D13D21484A103A91608CE046491831C5
:1047B000884205D14FF47461434A103A916082E017
:1047C00041493031884205D14FF474113E4A103AC4
:1047D000916078E03C494831884205D14FF07461DE
:1047E000394A103A91606EE037496031884204D10D
:1047F0003649354A103AD16065E03349783188420C
:1048000004D13349304A103AD1605CE02E499031EE
:10481000884204D12F492C4A103AD16053E02A49EA
:10482000A831884205D14FF03D51274A103AD16056
:1048300049E02949884204D13D21274A083A1160BC
:1048400041E025491831884205D14FF47461224A6C
:10485000083A116037E020493031884205D14FF4E1
:1048600074111D4A083A11602DE01B4948318842F5
:1048700005D14FF07461184A083A116023E01649D7
:104880006031884204D11149134A121F11601AE0A5
:1048900011497831884204D10D490F4A121F116025
:1048A00011E00D499031884204D10A490A4A121F89
:1048B000116008E00849A831884204D14FF03D5109
:1048C000054A121F11607047106002403D00002031
:1048D000400F002000003D201064024001460020EF
:1048E0000A6802F001020AB1012000E000207047CE
:1048F00070B50246002000240025124EB24201D2BB
:10490000114B01E00F4B103B104E0E4036B11E26EE
:1049100006EAD124166806EA040502E0566906F0A4
:10492000800501F000560EB15C6800E01C68084E7E
:10493000344004EA010616B10DB1012000E0002068
:1049400070BD000010640240006002403C0F3C0F4C
:104950007D0F7D0F10B501F080034BB122B143698B
:1049600043F08003436103E0436923F08003436124
:1049700080290BD02AB1036801F01E042343036091
:1049800004E0036801F01E04A343036010BD0000AF
:1049900010B500220268134B1A40CC680B68234301
:1049A0004C6923438C692343CC6923430C6A23431A
:1049B0004C6A23438C6A23434C6B23438C6B234305
:1049C0001A430260426922F00702D1E90B34234303
:1049D0001A4342610B6943604B6883608B68C36014
:1049E00010BD00003F801CF0416070472DE9F04190
:1049F0002DED048B04460E460027B846002504E042
:104A0000605D3844C7B2681CC5B2701EA842F7DCAE
:104A1000A01910F8018CA01910F8010CB84206D0AA
:104A2000A078022803D0BDEC048BBDE8F081A0196A
:104A300010F8010CB84200D0F5E72078BA2802D16E
:104A40006078BF2800D0EEE7A078012841D1FE4968
:104A5000087000204860207908726179FA48417234
:104A6000A1798172E179C172217A0173617A41730E
:104A7000A17A8173E17AC173217B0174617B4174F6
:104A8000A17B8174E17BC174217C0175617C4175DE
:104A900000251BE0EC480830405D05EB450101EBCB
:104AA000C501EA4A02EBC101C870E7488C3000EB4F
:104AB000850090ED000A05EB450000EBC5001146AE
:104AC00001EBC00080ED070A681CC5B20E2DE1DBCA
:104AD000F3E1A07802287DD100BF0120DA490870F7
:104AE000002048602079000200B26279104300EE95
:104AF000100AB8EEC00A10EE101A0846FBF753FF72
:104B000041EC190B9FEDD20B53EC102BFBF79FFEE2
:104B100041EC180BFBF78AFFCB49C1F88C00A07958
:104B2000000200B2E279104300EE100AB8EEC00AAB
:104B300010EE101A0846FBF736FF41EC190B9FEDFB
:104B4000C40B53EC102BFBF782FE41EC180BFBF768
:104B50006DFFBD49C1F89000207A000200B2627A70
:104B6000104300EE100AB8EEC00A10EE101A084604
:104B7000FBF719FF41EC190B9FEDB50B53EC102B14
:104B8000FBF765FE41EC180BFBF750FFAE49C1F88F
:104B90009400A07A000200B2E27A104300EE100AFC
:104BA000B8EEC00A10EE101A0846FBF7FCFE41EC06
:104BB000190B9FEDA70B53EC102BFBF748FE41ECB4
:104BC000180BFBF733FFA049C1F89800207B0002C7
:104BD00000B200E074E0627B104300EE100AB8EE11
:104BE000C00A10EE101A0846FBF7DDFE41EC190B67
:104BF0009FED970B53EC102BFBF729FE41EC180BA4
:104C0000FBF714FF9049C1F89C00A07B000200B2A2
:104C1000E27B104300EE100AB8EEC00A10EE101A44
:104C20000846FBF7C0FE41EC190B9FED890B53ECD6
:104C3000102BFBF70CFE41EC180BFBF7F7FE82493B
:104C4000C1F8A000207C000200B2627C104300EE9C
:104C5000100AB8EEC00A10EE101A0846FBF7A3FEC1
:104C600041EC190B9FED7A0B53EC102BFBF7EFFD8A
:104C700041EC180BFBF7DAFE7349C1F8A4000025DC
:104C80001BE071480830405D05EB450101EBC501B3
:104C90006E4A02EBC101C8706B48FC3000EB850026
:104CA00090ED000A05EB450000EBC500114601EB55
:104CB000C00080ED0B0A681CC5B20E2DE1DBFCE0E4
:104CC000A0780328FBD100BF01205F4908700020B5
:104CD00048602079000200B26279104300EE100AA9
:104CE000B8EEC00A10EE101A0846FBF75CFE41EC65
:104CF000190B9FED570B53EC102BFBF7A8FD41EC64
:104D0000180BFBF793FE5049C1F8A800A0790002E8
:104D100000B2E279104300EE100AB8EEC00A10EEBD
:104D2000101A0846FBF73FFE41EC190B9FED480BAC
:104D300053EC102BFBF78BFD41EC180BFBF776FEC9
:104D40004149C1F8AC00207A000200B2627A1043F7
:104D500000EE100AB8EEC00A10EE101A0846FBF773
:104D600022FE41EC190B9FED3A0B53EC102BFBF795
:104D70006EFD41EC180BFBF759FE3349C1F8B0004A
:104D8000A07A000200B2E27A104300EE100AB8EEF8
:104D9000C00A10EE101A0846FBF705FE41EC190B8D
:104DA0009FED2B0B53EC102BFBF751FD41EC180B37
:104DB000FBF73CFE2449C1F8B400207B000200B29E
:104DC000627B104300EE100AB8EEC00A10EE101A13
:104DD0000846FBF7E8FD41EC190B9FED1D0B53EC6A
:104DE000102BFBF734FD41EC180BFBF71FFE1649A7
:104DF000C1F8B800A07B000200B2E27B104300EED5
:104E0000100AB8EEC00A10EE101A0846FBF7CBFDE8
:104E100041EC190B9FED0E0B53EC102BFBF717FD1C
:104E200041EC180BFBF702FE0749C1F8BC00207CDF
:104E3000000200B2627C104300EE100AB8EEC00A15
:104E400010EE101A084607E0F82B0120B03B0120B5
:104E50000000000000003E40FBF7A5FD41EC190BEF
:104E60001FED050B53EC102BFBF7F1FC41EC180B7D
:104E7000FBF7DCFD1249C1F8C00000251BE010481B
:104E80000830405D05EB450101EBC5010D4A02EB21
:104E9000C101C8700A48FC3000EB850090ED000AA3
:104EA00005EB450000EBC500114601EBC00080EDAD
:104EB0000B0A681CC5B20E2DE1DB00BFB3E5000094
:104EC000F82B0120B03B0120704710B5044603E0E9
:104ED0004FF47A7000F005F8201EA4F10104F7D118
:104EE00010BD30B5044602F077FA054600BF02F067
:104EF00073FA401BA042FAD330BD0000B0EE402A46
:104F0000F0EE422AF5EEC00AF1EE10FA04D9B5EE41
:104F1000C01AF1EE10FA01D8C0ED002ABDEEE03A59
:104F2000B7EE004AF4EEC40AF1EE10FA02D29FED99
:104F3000650A9AE0B7EE004AF4EEC40AF1EE10FA00
:104F400009DBB1EE044AF4EEC40AF1EE10FA02D223
:104F50009FED5D0A89E0B1EE044AF4EEC40AF1EE79
:104F600010FA09DBB2EE044AF4EEC40AF1EE10FACC
:104F700002D29FED560A78E0B2EE044AF4EEC40A7B
:104F8000F1EE10FA09DBB2EE0E4AF4EEC40AF1EECD
:104F900010FA02D29FED4E0A67E0B2EE0E4AF4EE2E
:104FA000C40AF1EE10FA09DBB3EE044AF4EEC40AC7
:104FB000F1EE10FA02D29FED470A56E0B3EE044A32
:104FC000F4EEC40AF1EE10FA09DBB3EE094AF4EE8E
:104FD000C40AF1EE10FA02D29FED3F0A45E0B3EEAB
:104FE000094AF4EEC40AF1EE10FA09DBB3EE0E4AF8
:104FF000F4EEC40AF1EE10FA02D29FED380A34E062
:10500000B3EE0E4AF4EEC40AF1EE10FA09DB9FED9E
:10501000344AF4EEC40AF1EE10FA02D29FED310ADE
:1050200023E09FED2F4AF4EEC40AF1EE10FA09DBFB
:105030009FED2D4AF4EEC40AF1EE10FA02D29FED74
:105040002B0A12E09FED284AF4EEC40AF1EE10FAA2
:1050500009DB9FED274AF4EEC40AF1EE10FA02D202
:105060009FED240A01E09FED240AF0EE401A31EE94
:10507000214AC1EE044AF5EEC04AF1EE10FA02D21E
:105080009FED1E4A11E071EE214A81EE244AF7EEAF
:10509000004AB4EEE44AF1EE10FA02DDB7EE004A3F
:1050A00003E071EE214A81EE244AF0EE443A90ED9D
:1050B000004AD0ED004A72EEE44A04EEA34A80EDC5
:1050C000004A704784F9A23EAF4C593DBB41BA3CFF
:1050D000AF4C593C4F63193CD70DED3BB827C13B52
:1050E000000048423661823B00008C42F3D62D3BE3
:1050F0000000C8423661023B8A9BD03A00000000A3
:1051000070B52DED0E8BB0EE40EA0446B0EE608A2D
:10511000B0EE419A1EEE105AB5EEC08AF1EE10FACA
:1051200004D9B5EEC09AF1EE10FA04D82846FBF780
:105130003AFCC4E90001FDEEC8EAB7EE000AB4EE9D
:10514000C08AF1EE10FA02D2DFED768A9AE0B7EE6D
:10515000000AB4EEC08AF1EE10FA09DBB1EE040ADF
:10516000B4EEC08AF1EE10FA02D2DFED6F8A89E068
:10517000B1EE040AB4EEC08AF1EE10FA09DBB2EE29
:10518000040AB4EEC08AF1EE10FA02D2DFED678AAB
:1051900078E0B2EE040AB4EEC08AF1EE10FA09DB50
:1051A000B2EE0E0AB4EEC08AF1EE10FA02D2DFEDD2
:1051B000608A67E0B2EE0E0AB4EEC08AF1EE10FA31
:1051C00009DBB3EE040AB4EEC08AF1EE10FA02D2A3
:1051D000DFED588A56E0B3EE040AB4EEC08AF1EE71
:1051E00010FA09DBB3EE090AB4EEC08AF1EE10FA48
:1051F00002D2DFED518A45E0B3EE090AB4EEC08A6F
:10520000F1EE10FA09DBB3EE0E0AB4EEC08AF1EE4D
:1052100010FA02D2DFED498A34E0B3EE0E0AB4EEA2
:10522000C08AF1EE10FA09DB9FED450AB4EEC08AA0
:10523000F1EE10FA02D2DFED438A23E09FED400A3F
:10524000B4EEC08AF1EE10FA09DB9FED3F0AB4EE2E
:10525000C08AF1EE10FA02D2DFED3C8A12E09FED37
:105260003A0AB4EEC08AF1EE10FA09DB9FED380A73
:10527000B4EEC08AF1EE10FA02D2DFED368A01E018
:10528000DFED358AF0EE689AF0EE698A39EE280A89
:10529000C9EE000AF5EEC00AF1EE10FA02D29FED57
:1052A0002F0A11E079EE290A89EE200AF7EE000AAA
:1052B000B4EEE00AF1EE10FA02DDB7EE000A03E008
:1052C00079EE290A89EE200A10EE106A3046FBF7C3
:1052D0006AFB41EC1B0B2846FBF765FB41EC1D0B01
:1052E00094ED001BB0EE410AF0EE610A53EC102B76
:1052F000FBF735FA41EC1C0B53EC1B2BFBF735FA93
:1053000041EC1A0B94ED001BB0EE410AF0EE610A7D
:1053100053EC102BFBF782F9C4E90001BDEC0E8BB6
:1053200070BD000084F9A23EAF4C593DBB41BA3C70
:10533000AF4C593C4F63193CD70DED3BB827C13BEF
:10534000000048423661823B00008C42F3D62D3B80
:105350000000C8423661023B8A9BD03A0000000040
:1053600000B52DED028B91B0FE48007810B90120F8
:10537000FC490870032002F059F8FB4880ED030A4D
:105380008DED100AF94880ED030AF948007C40B918
:10539000F848006828B902F0FBFD9DED100A02F004
:1053A0000DFA9DED100AB7EE001AC1EE000AF248A0
:1053B0000088F1490988491CEF4A118000EE100A63
:1053C000B8EE400AF4EEC00AF1EE10FA7ED2E948D7
:1053D000006800287AD14FF6FA7011460880E74835
:1053E000806F0190FBF7DFFA9FEDE50B53EC102B7C
:1053F000CDE902019DED020B51EC100BFBF727FAF2
:10540000CDE904019DED040B51EC100BFBF70EFBF5
:105410000990DA48406F0190FBF7C5FA9FEDD80B71
:1054200053EC102BCDE902019DED020B51EC100B5A
:10543000FBF70DFACDE904019DED040B51EC100BC7
:10544000FBF7F4FA0890CD48006F0190FBF7ABFA38
:105450009FEDCB0B53EC102BCDE902019DED020B20
:1054600051EC100BFBF7F3F9CDE904019DED040BB2
:1054700051EC100BFBF7DAFA0790C048D0ED240A84
:10548000BB48807A00EE100AB8EE400A60EE800A4F
:10549000BA4890F8010100EE100AB8EE400A20EE7A
:1054A000800ADFEDB90A20EE200A8DED060AB34826
:1054B000D0ED230AAE48807A00EE100AB8EE400A1A
:1054C00060EE800AAD4890F8010100E0FDE300EED7
:1054D000100AB8EE400A60EE800A9FEDAB0A20EE9B
:1054E000800A8DED050AA548D0ED220AA048807AF1
:1054F00000EE100AB8EE400A60EE800A9F4890F86D
:10550000010100EE100AB8EE400A20EE800ADFED3D
:105510009E0A20EE200A8DED040A984890ED150AA7
:105520008DED030A90ED140A8DED020A90ED130A39
:105530008DED010A954A96499648DDED064A9DEDA6
:10554000054ADDED043A9DED033ADDED022A9DEDBD
:10555000012ADDED091A9DED081ADDED070A9DED22
:10556000100A0FF0D3FE8548C06C0590FBF71BFABC
:105570009FED890B53EC102BCDE906019DED060B39
:1055800051EC100BFBF763F9CDE908019DED080B19
:1055900051EC100BFBF74AFA0D907848006D05901E
:1055A000FBF701FA9FED7C0B53EC102BCDE90601C4
:1055B0009DED060B51EC100BFBF749F9CDE9080105
:1055C0009DED080B51EC100BFBF730FA0E906B4879
:1055D000406D0590FBF7E7F99FED6F0B53EC102B37
:1055E000CDE906019DED060B51EC100BFBF72FF9F1
:1055F000CDE908019DED080B51EC100BFBF716FAF5
:105600000F909DED0E0A6648D0ED020A20EE200AAA
:10561000DDED0F0A90ED011A00EEC10A8DED0A0AC8
:105620009DED0F0AD0ED000A20EE200ADDED0D0AF7
:1056300090ED021A00EEC10A8DED0B0A90ED020A00
:10564000DDED0F0A20EE200AD0ED000A9DED0D1AC7
:1056500000EE810AD0ED010A9DED0E1A00EE810ADE
:10566000F7EE000A30EE600A8DED0C0A0A980590FC
:10567000FBF799F99FED4B0B53EC102BCDE906018D
:105680009DED060B51EC100BFBF76FF8CDE908010F
:105690009DED080B51EC100BFBF7C8F94349C1F81D
:1056A000C4020B980590FBF77EF99FED3E0B53EC7F
:1056B000102BCDE906019DED060B51EC100BFBF70D
:1056C00054F8CDE908019DED080B51EC100BFBF7E8
:1056D000ADF93649C1F8C8020C980590FBF763F99B
:1056E0009FED300B53EC102BCDE906019DED060B21
:1056F00051EC100BFBF739F8CDE908019DED080BD3
:1057000051EC100BFBF792F92849C1F8CC02214863
:1057100090ED000A084680ED5A0A1D4890ED000AF7
:10572000B1EE400A084680ED5B0A184890ED000A89
:10573000084680ED5C0A9DED0D0A80EDAD0A9DEDF9
:105740000E0A80EDAE0A9DED0F0A80EDAF0A90EDD6
:105750005C0A8DED090A9DED090A12F0B5FE1348A9
:1057600026E000004400002020B60020DCB5002028
:10577000C0270120882A012046000020186401204B
:105780006666666666A64C4000000000440F002076
:105790003C0F0020400F0020000000000000B0403F
:1057A000C06301201F85EB51B89E2340782700205D
:1057B000D0EDAD0AF1EE600A20EE208AD0F870013B
:1057C0000790FBF7F0F8CDE908019DED080B0DF00F
:1057D000A9FDFE48D0EDAE0A00EE808A80EDA98AD0
:1057E000D0F870010790FBF7DEF8CDE908019DEDD8
:1057F000080B0DF097FDF548D0EDAD0A20EE208A9C
:1058000090ED5C0A8DED090A9DED090A12F05CFE2F
:10581000EE48D0EDAE0A00EE808A80EDAA8A90EDC7
:105820005A0A8DED090A9DED101AE948D0ED000ADB
:10583000E8489DED090AFFF761FBE44890ED5B0A3B
:105840008DED090A9DED101AE148D0ED000AE148FE
:10585000001D9DED090AFFF751FBDC4890ED5C0A45
:105860008DED090A9DED101AD948D0ED000AD948EE
:1058700008309DED090AFFF741FB1FED3D0AD548B1
:1058800080ED020A90ED000AB1EE400A8DED070AA4
:105890000798FBF788F8CDE908019DED080B0DF09E
:1058A00041FDB0EE408ACB4890ED020AB1EE400ACD
:1058B0008DED070A0798FBF776F8CDE908019DED15
:1058C000080B0DF02FFD28EE000AC04880EDD40A29
:1058D000C04890ED010AB1EE400A8DED070A079825
:1058E000FBF761F8CDE908019DED080B0DF01AFDFD
:1058F000B1EE408AB74890ED020AB1EE400A8DED54
:10590000090A9DED090A12F0DFFD28EE008AB14870
:1059100090ED000AB1EE400A8DED090A9DED090AED
:1059200012F0D2FDF0EE408AAA4890ED010AB1EEE5
:10593000400A8DED090A9DED090A12F0C5FD68EED9
:10594000808AA44890ED020AB1EE400A8DED070A64
:105950000798FBF728F8CDE908019DED080B0DF03D
:10596000E1FC08EE808A994880EDD78A994890ED4D
:10597000010AB1EE400A8DED090A9DED090A12F007
:10598000A3FDB0EE408A934890ED020AB1EE400AC2
:105990008DED090A9DED090A12F096FD28EE008AA8
:1059A0008C4890ED010AB1EE400A8DED070A079888
:1059B000FAF7F9FFCDE908019DED080B0DF0B2FCF7
:1059C000F0EE408A834890ED000AB1EE400A8DED7A
:1059D000090A9DED090A12F077FD68EE808A7D487C
:1059E00090ED020AB1EE400A8DED070A0798FAF72A
:1059F000DAFFCDE908019DED080B0DF093FC08EEF0
:105A0000808A724880EDDA8A724890ED000AB1EE21
:105A1000400A8DED070A0798FAF7C5FFCDE908019E
:105A20009DED080B0DF07EFCB0EE408A694890EDCC
:105A3000020AB1EE400A8DED090A9DED090A12F045
:105A400043FD28EE000A614880EDD50A614890EDDB
:105A5000010AB1EE400A8DED070A0798FAF7A3FF95
:105A6000CDE908019DED080B0DF05CFCB0EE408A1D
:105A7000584890ED020AB1EE400A8DED070A0798EA
:105A8000FAF791FFCDE908019DED080B0DF04AFCF6
:105A900028EE008A4F4890ED010AB1EE400A8DEDE4
:105AA000090A9DED090A12F00FFDF0EE408A4948FF
:105AB00090ED000AB1EE400A8DED090A9DED090A4C
:105AC00012F002FD68EE808A424890ED020AB1EEC3
:105AD000400A8DED090A9DED090A12F0F5FC08EE69
